{
 "cells": [
  {
   "cell_type": "code",
   "execution_count": 2,
   "id": "284a60a8",
   "metadata": {},
   "outputs": [
    {
     "name": "stdout",
     "output_type": "stream",
     "text": [
      "{'input_count': 1,\n",
      " 'inputs': [{'prev_txid': '3d2c1b0a9f8e7d6c5b4a3f2e1d0c9b8a7f6e5d4c3b2a0b8d6f0e6f5c4c9e0f8b',\n",
      "             'script_sig': '483045022100f3b3c3a7d0f1e2d3c4b5a697887766554433221100ffeeddccbbaa9988776655022034ab56cd78ef90ab12cd34ef56ab78cd90ef12ab34cd56ef78ab90cd12ef34ab0121027d1c4e5f6a7b8c9d0e1f2233445566778899aabbccddeeff0011223344556677',\n",
      "             'sequence': 'ffffffff',\n",
      "             'vout': 0}],\n",
      " 'locktime': 0,\n",
      " 'output_count': 1,\n",
      " 'outputs': [{'script_pubkey': '76a91489abcdefabbaabbaabbaabbaabbaabbaabbaabba88ac',\n",
      "              'value_btc': 0.001,\n",
      "              'value_satoshi': 100000}],\n",
      " 'version': 1}\n"
     ]
    }
   ],
   "source": [
    "import struct\n",
    "\n",
    "# =========================\n",
    "# Helper: Read VarInt\n",
    "# =========================\n",
    "def read_varint(data, offset):\n",
    "    prefix = data[offset]\n",
    "\n",
    "    if prefix < 0xfd:\n",
    "        return prefix, offset + 1\n",
    "\n",
    "    elif prefix == 0xfd:\n",
    "        value = struct.unpack('<H', data[offset+1:offset+3])[0]\n",
    "        return value, offset + 3\n",
    "\n",
    "    elif prefix == 0xfe:\n",
    "        value = struct.unpack('<I', data[offset+1:offset+5])[0]\n",
    "        return value, offset + 5\n",
    "\n",
    "    else:\n",
    "        value = struct.unpack('<Q', data[offset+1:offset+9])[0]\n",
    "        return value, offset + 9\n",
    "\n",
    "\n",
    "# =========================\n",
    "# Main Parser\n",
    "# =========================\n",
    "def parse_transaction(raw_hex):\n",
    "\n",
    "    data = bytes.fromhex(raw_hex)\n",
    "    offset = 0\n",
    "\n",
    "    # 1️⃣ Version (4 bytes)\n",
    "    version = struct.unpack('<I', data[offset:offset+4])[0]\n",
    "    offset += 4\n",
    "\n",
    "    # 2️⃣ Input Count (VarInt)\n",
    "    input_count, offset = read_varint(data, offset)\n",
    "\n",
    "    inputs = []\n",
    "\n",
    "    for _ in range(input_count):\n",
    "\n",
    "        # Previous TXID (32 bytes, little-endian)\n",
    "        prev_txid = data[offset:offset+32][::-1].hex()\n",
    "        offset += 32\n",
    "\n",
    "        # Output index (4 bytes)\n",
    "        vout = struct.unpack('<I', data[offset:offset+4])[0]\n",
    "        offset += 4\n",
    "\n",
    "        # Script length\n",
    "        script_length, offset = read_varint(data, offset)\n",
    "\n",
    "        # ScriptSig\n",
    "        script_sig = data[offset:offset+script_length].hex()\n",
    "        offset += script_length\n",
    "\n",
    "        # Sequence\n",
    "        sequence = data[offset:offset+4].hex()\n",
    "        offset += 4\n",
    "\n",
    "        inputs.append({\n",
    "            \"prev_txid\": prev_txid,\n",
    "            \"vout\": vout,\n",
    "            \"script_sig\": script_sig,\n",
    "            \"sequence\": sequence\n",
    "        })\n",
    "\n",
    "    # 3️⃣ Output Count (VarInt)\n",
    "    output_count, offset = read_varint(data, offset)\n",
    "\n",
    "    outputs = []\n",
    "\n",
    "    for _ in range(output_count):\n",
    "\n",
    "        # Value (8 bytes)\n",
    "        value_satoshi = struct.unpack('<Q', data[offset:offset+8])[0]\n",
    "        offset += 8\n",
    "\n",
    "        value_btc = value_satoshi / 1e8\n",
    "\n",
    "        # Script length\n",
    "        script_length, offset = read_varint(data, offset)\n",
    "\n",
    "        # ScriptPubKey\n",
    "        script_pubkey = data[offset:offset+script_length].hex()\n",
    "        offset += script_length\n",
    "\n",
    "        outputs.append({\n",
    "            \"value_satoshi\": value_satoshi,\n",
    "            \"value_btc\": value_btc,\n",
    "            \"script_pubkey\": script_pubkey\n",
    "        })\n",
    "\n",
    "    # 4️⃣ Locktime (4 bytes)\n",
    "    locktime = struct.unpack('<I', data[offset:offset+4])[0]\n",
    "\n",
    "    return {\n",
    "        \"version\": version,\n",
    "        \"input_count\": input_count,\n",
    "        \"inputs\": inputs,\n",
    "        \"output_count\": output_count,\n",
    "        \"outputs\": outputs,\n",
    "        \"locktime\": locktime\n",
    "    }\n",
    "\n",
    "\n",
    "# =========================\n",
    "# Example Transaction\n",
    "# =========================\n",
    "\n",
    "raw_tx = \"01000000018b0f9e4c5c6f0e6f8d0b2a3b4c5d6e7f8a9b0c1d2e3f4a5b6c7d8e9f0a1b2c3d000000006b483045022100f3b3c3a7d0f1e2d3c4b5a697887766554433221100ffeeddccbbaa9988776655022034ab56cd78ef90ab12cd34ef56ab78cd90ef12ab34cd56ef78ab90cd12ef34ab0121027d1c4e5f6a7b8c9d0e1f2233445566778899aabbccddeeff0011223344556677ffffffff01a0860100000000001976a91489abcdefabbaabbaabbaabbaabbaabbaabbaabba88ac00000000\"\n",
    "\n",
    "parsed = parse_transaction(raw_tx)\n",
    "\n",
    "import pprint\n",
    "pprint.pprint(parsed)"
   ]
  },
  {
   "cell_type": "code",
   "execution_count": null,
   "id": "41253fb8",
   "metadata": {},
   "outputs": [],
   "source": []
  }
 ],
 "metadata": {
  "kernelspec": {
   "display_name": "Python 3 (ipykernel)",
   "language": "python",
   "name": "python3"
  },
  "language_info": {
   "codemirror_mode": {
    "name": "ipython",
    "version": 3
   },
   "file_extension": ".py",
   "mimetype": "text/x-python",
   "name": "python",
   "nbconvert_exporter": "python",
   "pygments_lexer": "ipython3",
   "version": "3.11.5"
  }
 },
 "nbformat": 4,
 "nbformat_minor": 5
}
